:040000001EEF06F0F9
:1008000001000A006400E80310276F747061643A05
:100810002073746172740A0077616974696E672E5F
:100820002E2E0A0025640A000000000E186E130E1A
:10083000176EB4D02050250AD8B401D001D009D009
:100840000FC0D9FF10C0DAFF20C0DFFF0F4A102A07
:10085000A5D0156E000E196E155005D0AED017D06C
:1008600016D09CD014D011C0F6FF12C0F7FF114A69
:10087000122A0800F5CF20F02050000AD8B49DD0ED
:10088000640AD8B404D00D0AD8B401D087D017C0F8
:10089000D9FF18C0DAFFDECF1BF0DDCF1CF0020E4F
:1008A0001726000E18221CAE01D001D007D0030E6F
:1008B00019121B6C1C1ED8B01C2A00D0156E010E1C
:1008C000206E15502050050AD8A401D001D002D0C6
:1008D00021D020D02050020D000EF324F66E080E19
:1008E000F420F76E0900F5CF15F00900F5CF16F0EA
:1008F00015501B5C16501C58D8B001D001D002D046
:1009000009D008D0202A2050050AD8A401D001D04F
:10091000E1D700D01950030BD8B401D001D009D0D1
:100920000FC0D9FF10C0DAFF2D0EDF6E0F4A102A5C
:1009300000D020C01AF02AD01A50020D000EF32465
:10094000F66E080EF420F76E0900F5CF03F00A00EA
:10095000F5CF04F01BC001F01CC002F091EC05F0D3
:1009600001C009F002C00AF0000E0C6E0A0E0B6EF8
:10097000C7EC05F00950300F206E0FC0D9FF10C032
:10098000DAFF20C0DFFF0F4A102A00D01A061A280B
:10099000D8A401D001D0D0D701D000D011C0F6FF2B
:1009A00012C0F7FF114A122A0800F5CF20F0206686
:1009B00001D001D03FD701D000D00FC0D9FF10C067
:1009C000DAFF000EDF6E00D01200216E000E4A6EBC
:1009D00021500E0EB46E80689268000E816E93688E
:1009E0009468F29E216E3C0E016E2150000E036E43
:1009F000330E026E49EC05F0B898B89A000E106EEE
:100A0000220E0F6E080E126E0A0E116E15EC04F017
:100A1000000E036E220E026EF5EC05F000D0000E03
:100A2000106E220E0F6E080E126E180E116E15EC5F
:100A300004F0000E036E220E026EF5EC05F093CF6B
:100A400093FF000E4C6E000E4B6E03D04B4A4C2AA7
:100A500000D08AB001D001D0F9D700D0000E936E3B
:100A60008ACF8AFF000E106E220E0F6E080E126ED5
:100A7000240E116E4BC013F04CC014F015EC04F0B2
:100A8000000E036E220E026EF5EC05F0C8D700EFE3
:100A900000F0000EAC6E000EAB6E01A001D001D0D4
:100AA00001D0AC8801A201D001D002D0AC8CAB8CBB
:100AB00001A401D001D001D0AC8E01A601D001D09B
:100AC00002D0AB8801D0AB8A01A801D001D001D0FF
:100AD000AC849E9801AA01D001D001D0AB8601ACB4
:100AE00001D001D002D09D8A01D09D9A9E9A01AE7C
:100AF00001D001D002D09D8801D09D9802C0AFFFE7
:100B00000350B06EAC8AAB8E949C948EACA801D08E
:100B100001D006D0ACBE01D001D002D0948C00D060
:100B20001200000E076E000E066E04500310D8B4BB
:100B300001D001D027D0056E010E086E055005D0FA
:100B4000D89003360436082A00D004AE01D001D074
:100B5000F7D701D000D0D890063607360350015C95
:100B600004500258D8A001D001D006D00350015E35
:100B70000450025A068000D0D89004320332082E66
:100B8000EAD700D006C001F007C002F012000C50F6
:100B90000B10D8B401D001D023D00D6E010E0E6E13
:100BA0000D5005D0D8900B360C360E2A00D00CAE66
:100BB00001D001D0F7D701D000D00B50095C0C5008
:100BC0000A58D8A001D001D005D00B50095E0C50B6
:100BD0000A5A00D0D8900C320B320E2EEED700D02D
:100BE00009C009F00AC00AF0120000D0ACA201D07E
:100BF00001D0FCD700D002C0D9FF03C0DAFFDF501C
:100C0000016E10EC06F002C0D9FF03C0DAFF024A01
:100C1000032ADF50D8A401D001D0E7D700D01200BA
:100C2000ACAC01D001D007D0AC904DA201D001D026
:100C300002D0AC8000D001C0ADFF12004D6A000EA2
:080C4000F86E0001E5EF04F07D
:020000040020DA
:08000000FFFFFFFFFFFFFFFF00
:020000040030CA
:0E0000000008191EFF0184FF0FC00FE00F4023
:00000001FF
